:100000000C9446090C948D090C948D090C948D095F
:100010000C948D090C948D090C948D090C948D0908
:100020000C948D090C948D090C946B2C0C943F2D21
:100030000C94AE260C948D090C948D090C948D09AA
:100040000C948D090C948D090C948D090C948D09D8
:100050000C948D090C9421270C948D090C948D0916
:100060000C948D090C948D090C948D090C948D09B8
:100070000C948D090C948D090C948D090C948D09A8
:100080000C948D090C948D090C948D090C948D0998
:100090000C948D090C948D090C948D090C948D0988
:1000A0000C948D090C948D090C948D090000C0C02E
:1000B000C0C0C0C0C0F8F81E1EFEFEF80000000060
:1000C0000000000000000000000000000000000030
:1000D0000303030303FFFFFFFFFFFFFF8080808018
:1000E0008080808080808080808080000000000090
:1000F00000000000007F7FFFFFFFFFFF9F9F8787BB
:100100008181816161191907070101000000000068
:1001100000000000000000010161617F01016161D8
:100120007F0101000000000000000000000000004E
:1001300000000000000000000000000000000000BF
:1001400000000000000000000000000000000000AF
:10015000000000000000000000000000000000009F
:10016000000000000000000000000000000000008F
:10017000000000000000000000000000000000007F
:10018000000000000000000000000000000000006F
:10019000000000000000000000000000000000005F
:1001A000000000000000000000000000000000004F
:1001B000000000000000000000000000000000003F
:1001C000000000000000000000000000000000002F
:1001D000000000000000000000000000000000001F
:1001E000000000000000000000000000000000000F
:1001F00000000000000000000000000000000000FF
:1002000000000000000000000000000000000000EE
:1002100000000000000000000000000000000000DE
:1002200000000000000000000000000000000000CE
:1002300000000000000000000000000000000000BE
:1002400000000000000000000000000000000000AE
:10025000000000000000000000000000000000009E
:10026000000000000000000000000000000000008E
:10027000000000000000000000000000000000007E
:10028000000000000000000000000000000000006E
:10029000000000000000000000000000000000005E
:1002A000000000000000000000000000000000004E
:1002B000000000000000000000000000000000003E
:1002C000000000000000000000000000000000002E
:1002D000000000000000000000000000000000001E
:1002E000000000000000000000000000000000000E
:1002F00000000000000000000000000000000000FE
:1003000000000000000000000000000000000000ED
:1003100000000000000000000000000000000000DD
:1003200000000000000000000000808080808080CD
:1003300080F0F03C3CFCFCF00000000000000000FD
:10034000000000000000000000000101070707078F
:1003500007FFFFFEFEFFFFFF00000000000000009F
:10036000000000000000000000000000000000008D
:1003700000FFFFFFFFFFFFFF3F3F0F0F030303C31C
:10038000C333330F0F030300000000000000000020
:10039000000000030363637F030363637F030300C1
:1003A000000000000000000000000000000000004D
:1003B000000000000000000000000000000000003D
:1003C000000000000000000000000000000000002D
:1003D000000000000000000000000000000000001D
:1003E000000000000000000000000000000000000D
:1003F00000000000000000000000000000000000FD
:1004000000000000000000000000000000000000EC
:1004100000000000000000000000000000000000DC
:1004200000000000000000000000000000000000CC
:1004300000000000000000000000000000000000BC
:1004400000000000000000000000000000000000AC
:10045000000000000000000000000000000000009C
:10046000000000000000000000000000000000008C
:10047000000000000000000000000000000000007C
:10048000000000000000000000000000000000006C
:10049000000000000000000000000000000000005C
:1004A000000000000000000000000000000000004C
:1004B000000000000000000000000000000000003C
:1004C000000000000000000000000000000000002C
:1004D000000000000000000000000000000000001C
:1004E000000000000000000000000000000000000C
:1004F00000000000000000000000000000000000FC
:1005000000000000000000000000000000000000EB
:1005100000000000000000000000000000000000DB
:1005200000000000000000000000000000000000CB
:1005300000000000000000000000000000000000BB
:1005400000000000000000000000000000000000AB
:10055000000000000000000000000000000000009B
:10056000000000000000000000000000000000008B
:10057000000000000000000000000000000000007B
:10058000000000000000000000000000000000006B
:10059000000000000000000000000000000000005B
:1005A000000000005247420A0046554E430A0042EE
:1005B0004153450A000A004D4F44450A002D2D2D98
:1005C0002D2D0A004455434B0A424F4152440A0024
:1005D000000001535400550056000000240025007F
:1005E0002600570000002100220023005700A80029
:1005F0001E001F00200028002A00270027003700C7
:1006000028000000015301000100010000004A0021
:1006100052004B0001000000500001004F0001009B
:1006200001004D0051004E0001000253010049003D
:100630004C00010000000100C25CC35C010000002E
:10064000C55CC75CC95C01000000C65CC85CCA5CD4
:100650000100005C01000100010001000253005C88
:1006600001000100010044454255473A2064697386
:1006700061626C65642E0A0044454255473A206524
:100680006E61626C65642E0A000A002530386200D3
:100690003A200025303258000A722F632030313260
:1006A00033343536370A007267626C6967687420C4
:1006B00073657420687376205B4E4F454550524FEA
:1006C0004D5D3A2025752C25752C25750A0072671D
:1006D000626C696768742073657420687376205B48
:1006E000454550524F4D5D3A2025752C25752C25DA
:1006F000750A007267626C69676874206469736167
:10070000626C65205B454550524F4D5D3A207267E3
:10071000626C696768745F636F6E6669672E656E89
:1007200061626C65203D2025750A007267626C6904
:1007300067687420656E61626C65205B4545505248
:100740004F4D5D3A207267626C696768745F636FD2
:100750006E6669672E656E61626C65203D20257549
:100760000A007267626C6967687420746F67676CEF
:1007700065205B454550524F4D5D3A207267626C73
:10078000696768745F636F6E6669672E656E616224
:100790006C65203D2025750A007267626C69676888
:1007A00074206D6F6465205B4E4F454550524F4D30
:1007B0005D3A2025750A007267626C69676874206B
:1007C0006D6F6465205B454550524F4D5D3A202565
:1007D000750A007267626C696768745F696E697434
:1007E000207267626C696768745F636F6E666967C1
:1007F0002E6D6F6465203D20302E20577269746520
:100800002064656661756C742076616C7565732013
:10081000746F20454550524F4D2E0A007267626C2E
:10082000696768745F696E6974206565636F6E6679
:100830006967206973206E6F7420656E61626C65F4
:10084000642E0A007267626C696768745F696E691A
:1008500074207374617274210A007267626C696734
:1008600068745F696E69742063616C6C65642E0ADC
:10087000007267626C696768745F636F6E66696750
:100880002E7370656564203D2025640A00726762DE
:100890006C696768745F636F6E6669672E76616CFA
:1008A000203D2025640A007267626C696768745F86
:1008B000636F6E6669672E736174203D2025640A3C
:1008C000007267626C696768745F636F6E66696700
:1008D0002E687565203D2025640A007267686C6982
:1008E0006768745F636F6E6669672E6D6F646520FD
:1008F0003D2025640A007267626C696768745F63F3
:100900006F6E6669672E656E61626C65203D20259D
:10091000640A007267626C696768745F636F6E6611
:10092000696720454550524F4D3A0A0000010101C8
:10093000010101010101020202020202020202039C
:10094000030303030303030404040404040405056C
:10095000050505060606060607070707070808082F
:1009600008090909090A0A0A0B0B0B0C0C0C0D0DDE
:100970000D0E0E0E0F0F0F10101111111212131376
:100980001414151516161717181819191A1A1B1BEF
:100990001C1D1D1E1E1F202021222223242425264B
:1009A00026272829292A2B2C2D2D2E2F3031323283
:1009B000333435363738393A3B3C3D3E3F4041428F
:1009C000434445464748494A4C4D4E4F5051535475
:1009D000555658595A5B5D5E5F6162646566686929
:1009E0006B6C6D6F7072737577787A7B7D7E8082A9
:1009F000838587888A8C8E8F91939596989A9C9EF2
:100A0000A0A2A3A5A7A9ABADAFB1B3B5B7BABCBE01
:100A1000C0C2C4C6C9CBCDCFD1D4D6D8DBDDDFE2CE
:100A2000E4E7E9EBEEF0F3F5F8FAFDFF6F6C6564CF
:100A30005F6F666620636D64206661696C65640A39
:100A40000000AE6F6C65645F6F6E20636D6420663E
:100A500061696C65640A0000AF6F6C65645F726504
:100A60006E64657239302064617461206661696CFE
:100A700065640A006F6C65645F72656E6465722000
:100A800064617461206661696C65640A006F6C65FD
:100A9000645F72656E646572206F6666736574204C
:100AA000636F6D6D616E64206661696C65640A00D8
:100AB000646973706C61795F7365747570322066F8
:100AC00061696C65640A0000DA02818FD9F1DB404C
:100AD000A4A62EAF646973706C61795F666C6970EF
:100AE000706564206661696C65640A0000A0C06F6F
:100AF0006C65645F696E697420636D64206E6F72EB
:100B00006D616C20726F746174696F6E20666169CB
:100B10006C65640A0000A1C86F6C65645F696E69EA
:100B20007420636D64207365742031206661696C84
:100B300065640A0000AED580A81FD300408D142044
:100B4000000000000000003E5B4F5B3E003E6B4F2C
:100B50006B3E001C3E7C3E1C00183C7E3C18001C7A
:100B6000577D571C001C5E7F5E1C0000183C18005F
:100B700000FFE7C3E7FF00001824180000FFE7DBD1
:100B8000E7FF0030483A060E002629792926004062
:100B90007F05050700407F05253F005A3CE73C5A8A
:100BA000007F3E1C1C0800081C1C3E7F0014227F96
:100BB0002214005F5F005F5F0006097F017F000075
:100BC0006689956A0060606060600094A2FFA294EC
:100BD0000008047E04080010207E20100008082A67
:100BE0001C0800081C2A0808001E10101010000C19
:100BF0001E0C1E0C0030383E383000060E3E0E062D
:100C00000000000000000000005F0000000007007E
:100C1000070000147F147F1400242A7F2A12002367
:100C2000130864620036495620500000080703008C
:100C300000001C224100000041221C00002A1C7FF1
:100C40001C2A0008083E08080000807030000008D8
:100C50000808080800000060600000201008040276
:100C6000003E5149453E0000427F40000072494924
:100C70004946002141494D33001814127F100027C6
:100C800045454539003C4A49493100412111090790
:100C900000364949493600464949291E00000014DA
:100CA000000000004034000000000814224100143D
:100CB00014141414000041221408000201590906FA
:100CC000003E415D594E007C1211127C007F494963
:100CD0004936003E41414122007F4141413E007F73
:100CE00049494941007F09090901003E41415173C9
:100CF000007F0808087F0000417F4100002040413C
:100D00003F01007F08142241007F40404040007FA7
:100D1000021C027F007F0408107F003E4141413EDB
:100D2000007F09090906003E4151215E007F091933
:100D300029460026494949320003017F0103003F4B
:100D40004040403F001F2040201F003F4038403FB0
:100D50000063140814630003047804030061594914
:100D60004D4300007F414141000204081020000073
:100D70004141417F000402010204004040404040E4
:100D8000000003070800002054547840007F2844E6
:100D9000443800384444442800384444287F00380C
:100DA000545454180000087E09020018A4A49C782A
:100DB000007F080404780000447D4000002040408B
:100DC0003D00007F102844000000417F4000007C6F
:100DD00004780478007C08040478003844444438DB
:100DE00000FC182424180018242418FC007C080493
:100DF00004080048545454240004043F4424003C94
:100E00004040207C001C2040201C003C4030403CE6
:100E1000004428102844004C9090907C0044645476
:100E20004C4400000836410000000077000000003C
:100E300041360800000201020402003C2623263C41
:100E400000000000000000404040F0F8F8FF38FFCC
:100E5000F8F83FF8F8FF38FFF8F8F040404000009D
:100E60000000000080C0C0C0800000C0C080000042
:100E70000080C0C000C0C0000080C0C000000000F2
:100E800000C0C0C0C0C000C0C00000000000000022
:100E90000000000000000000000000000000000052
:100EA0000000000000000000000000000000000042
:100EB0000000000000000000000000000000000032
:100EC000C0F0F8FC3E1E06010000007F4141417F5A
:100ED000007F4141417F000080C0E07E5B4F5BFEB0
:100EE000C00000C000DCD7DEDEDED7DC00C00000C2
:100EF00000000000000000000000000000000000F2
:100F000000000000000000494949FFFFFFFFE0DF4B
:100F1000BFBF00BFBFDFE0FFFFFFFF49494900003F
:100F20000000001F3F6060E0BF1F007F7F071E388A
:100F30001E077F7F007F7F0E1F3B71600000000057
:100F4000007F7F0C0C0C007E7E007F7E0303007F01
:100F50007E03037E7E03037F7E000F3E703C063CD3
:100F6000703E0F00327B49493F7E007F7E030300C5
:100F70001E3F69696F2600000000000000000000AD
:100F8000030F1F3F3C7870600000007F4141417FAC
:100F9000007F4141417F00307B7F783020203078D6
:100FA0007F3B0003000F7F0F0F0F7F0F0003000038
:100FB0000000000000000000000000000000000031
:100FC00000000000000000010101070F0F7F0F7FEC
:100FD0000F0F7E0F0F7F0F7F0F0F07010101000022
:100FE00000000000000000000101000000000000FF
:100FF00000000000000000000000000000000000F1
:1010000000000000000000000000000000000000E0
:1010100000000000000000000000000000000000D0
:1010200000000000000000000000000000000000C0
:1010300000000000000000000000000000000000B0
:1010400000000000000000000000000000000000A0
:101050000000000000000000000000000000000090
:101060000000000000000000000000000000000080
:101070000000000000000000000000000000000070
:10108000000A002530325820006B6579626F61726A
:10109000645F7265706F72743A20000A0025303206
:1010A00058006B6579626F6172645F7365745F6C21
:1010B00065643A200064656C5F6B65795F62697492
:1010C0003A2063616E27742064656C3A20253032C3
:1010D000580A006164645F6B65795F6269743A20E5
:1010E00063616E2774206164643A20253032580AA7
:1010F000005B735D004B6579626F6172642073748D
:101100006172742E0A005B575D005B535D005B5299
:101110005D005B445D005B435D0004033000000044
:1011200014036400750063006B0062006F006100CF
:10113000720064000000140364006F006F0064001C
:1011400062006F0061007200640000000403090483
:1011500009025B00030100A0FA0904000001030179
:101160000100092111010001224000070581030847
:10117000000A090401000103000000092111010017
:1011800001226D000705820320000A090402000203
:10119000030000000921110100012222000705833C
:1011A00003200001070503032000011201100100C4
:1011B000000008424462640100010203010631FF9D
:1011C0000974A1010975150026FF00952075088195
:1011D000020976150026FF00952075089102C005CA
:1011E000010980A101850319012AB700150126B75D
:1011F00000950175108100C0050C0901A10185044D
:1012000019012AA002150126A0029501751081007E
:10121000C005010906A1018505050719E029E715A3
:101220000025019508750181020507190029EF15B0
:1012300000250195F0750181020508190129059520
:101240000575019102950175039101C0050109061B
:10125000A101050719E029E7150025019508750189
:1012600081029501750881010507190029FF150004
:1012700026FF0095067508810005081901290595C6
:101280000575019102950175039101C011241FBEDE
:10129000CFEFDAE0DEBFCDBF04B603FE27C08091FA
:1012A000DD049091DE04A091DF04B091E00487306A
:1012B000904BA740B04BD1F41092DD041092DE04A5
:1012C0001092DF041092E00414BE84B7877F84BFBD
:1012D0000FB6F894A89580916000886180936000B3
:1012E000109260000FBEE0E0F8E3099511E0A0E085
:1012F000B1E0E4E6FFE502C005900D92AE3AB10719
:10130000D9F724E0AEEAB1E001C01D92AD3DB207CD
:10131000E1F70E9491290C94742F0C940000FF9324
:10132000EF93E091AE01F091AF01309709F009958C
:10133000EF91FF910895FC018591803011F0EFDF6E
:10134000FBCF0895FF27E0E230E247FF0CC0419554
:1013500097FF09C0EDE26095709580959095611DAD
:10136000711D811D911D27FF02C0219530E350E2C0
:10137000AA27660F771F881F991FAA1FA41710F0AE
:10138000A41B63955A95A9F7AA3008F0A95FA05D40
:10139000AF93F395611571058105910541F7ED3224
:1013A00011F4EF93F395F21718F43F93F395FBCFF5
:1013B0008F91B5DFFA95E1F70895E991F99185915B
:1013C000803021F0853219F0AADFF9CF089520E0AE
:1013D000E89455915532C1F3503311F46894559106
:1013E0005A3348F4505390F3220F022E220F220F4B
:1013F000200D250FF4CF0EF4219589919991533644
:1014000019F3533729F1533559F1BC01882799272E
:10141000E8945C3621F489919991689455915436F9
:1014200039F446EF7EF077FF0DC08FEF9FEF0AC0D3
:1014300055374AE039F0583540E121F0523642E064
:1014400009F00895FF93EF937DDFEF91FF91B7CF00
:10145000FF93EF93FC0181918030B9F360DFFBCF04
:10146000FF93EF9368DFF1CFDF93CF93CDB7DEB774
:101470002596A3DFCF91DF910895811106C089EAF7
:10148000611101C08AEA0C94BF1B089583E008959E
:101490006091B1017091B2018091B3019091B4015A
:1014A0000E940527693C71058105910528F10E947C
:1014B000EA266093B1017093B2018093B3019093D7
:1014C000B4018091B00190E00196817099278093DA
:1014D000B00121E030E0281B390B4CE752E0249F9B
:1014E000C001259F900D349F900D11246CE772E090
:1014F00084559F4F0E94041566E080E00E940F14FF
:1015000060E084EC95E00E94F21460E08DEB95E0E1
:101510000E94F21460E087EB95E00E94F21460E014
:1015200085EB95E00E94F2146091480270914902A7
:1015300080914A0290914B020E947324813051F0B5
:10154000882319F0823051F0089560E08FEA95E029
:101550000C94F21460E089EA95E0FACF60E084EA46
:1015600095E0F6CFE5E7F2E080818360808308951F
:1015700081E0089581E008950C94BA0A08950C94CE
:10158000BE0A1F93CF93DF9300D000D00F92CDB748
:10159000DEB749835A836B833091FB0189819A813D
:1015A00031111DC06623B9F02223A9F00E942A231D
:1015B000182F682F89819A810E94D32269817A81AC
:1015C000812F0F900F900F900F900F90DF91CF9180
:1015D0001F910C94910B0E940123182FEFCF0E94B2
:1015E0002A2369817A81EDCFFC01262F4081518128
:1015F0006281738184810C94C10ACF93DF93EC01E3
:1016000060E00E94F40ABE01DF91CF910C94BF0A02
:101610000E94D824811102C00E9475250E942013C7
:101620000C94940D0E9431130C94970D08950C9412
:10163000160B81E008950C94190BCF93C82F0E94CC
:10164000170B8C2FCF910C941B0B08950E943D1EFD
:101650000E94250B2FEF84E39CE0215080409040B6
:10166000E1F700C000000C9445270F931F93CF9320
:10167000DF93EC0161E00E94F40A8C01BE010E943C
:10168000BC0A882341F1BE01C8010E9426178823A5
:1016900011F1BE01C8010E9467178823E1F0BE0165
:1016A000C8010E948A188823B1F0BE01C8010E94B7
:1016B0008712882381F08A81882341F101308CE5EB
:1016C000180779F00E3D8CE51807E9F001151C4567
:1016D000E9F40E94260B80E0DF91CF911F910F91DA
:1016E000089590917502892F8E7F90FF816080937D
:1016F000750280FF05C088E796E00E949B09EBCF4A
:1017000086E696E0FACF0E947525E5CFCE01DF91FF
:10171000CF911F910F910C94B80A90E080E008954A
:101720000895972F70E025E0929F600D711D1124A0
:10173000FB0199E1899FE00DF11D1124EE0FFF1FC0
:10174000E053FA4F859194910895FC01EE0FFF1F2D
:10175000E757F94F859194910895CF93DF930E94B5
:10176000910B0E94B90CEC01811520E5920708F05D
:1017700041C0811530E4930708F0B4C0803E910564
:1017800018F5803C910508F09DC0883A910570F4E9
:10179000853A910508F08EC081309105F9F00097E7
:1017A000E9F00497D8F4D0E0C0E018C08F3B910571
:1017B000D0F7C85AD0E0CC0FDD1FC75EDE4F0990CE
:1017C000D881C02DD4640AC08115904258F4C11547
:1017D00081E0D80718F4C83ED10528F7CE01DF9183
:1017E000CF910895C11590E3D90708F071C0CE01DB
:1017F0009F706AC0811525E5920758F5811534E57B
:10180000930708F09EC0811542E5940750F4C11576
:1018100081E5D80708F469C0DC2FCC27C16FD06AF6
:10182000DDCF982F969596959E0123703327C1158D
:10183000D34508F077C0C1E0D0E002C0CC0FDD1F77
:101840002A95E2F720E2929FC0011124C82BD92BE0
:1018500067C0C11589E5D807A8F4C11598E5D9076F
:1018600008F074C0C11526E5D20708F09CCF8C2F74
:101870000E94500DC82FD0E0DC2FCC27CC27DF7181
:10188000D062ACCFC1153AE5D30708F464C0CE01ED
:1018900090568115904208F086CF8D2F8F710E944F
:1018A000500D90E0982F882788279F719C012C2B42
:1018B000E901E6CFC55AD0E0C95BDE4FC881D0E070
:1018C000D0648CCF805C91090E94A50BEC0186CF7F
:1018D000CE019927D3FF03C0EC01D86C7FCFEC0178
:1018E000D06C7CCFDF70D06A79CFCE01E4E09695E2
:1018F0008795EA95E1F783702C2F2695269523701E
:1019000090E2299F90011124382B8C2F8370C1E025
:10191000D0E002C0CC0FDD1F8A95E2F7C22BD32B9B
:10192000DC685CCFC1E0D0E002C0CC0FDD1F2A959F
:10193000E2F730E2939FC0011124C82BD92BDA685B
:101940004DCFD82FCC27C46FD06A48CFDC2FCC27FF
:10195000C06FD06A43CF8C2F8F700E94500D34E03F
:10196000D695C7953A95E1F7CF709C2FEC01D069D9
:1019700035CF82389105B1F1B0F48133910509F486
:1019800075C048F48932910509F469C08A3291051D
:1019900009F473C008958533910509F459C089335A
:1019A000910501F10895833E9105A9F138F4803E37
:1019B0009105F9F0823E910549F10895863E910521
:1019C000A9F1873E9105C9F1843E910519F5209151
:1019D000CF0421FF1FC08091CE0484FD14C087EE88
:1019E00090E008952091CE042370A1F080EE90E065
:1019F00008952091CE0420FD47C03091CF0430FFE0
:101A000009C024FF44C090E080E004C02091CE04CF
:101A100022FDF7CF08952091CE0422FD3BC03091E6
:101A2000CF0430FDE3CF24FFF5CFEDCF2091CE04DE
:101A300023FFF0CF24FDE7CFD2CF2091CE0423FDAA
:101A40002CC03091CF0431FFEECF84EE90E00895AA
:101A50002091CE0425FFDECF89E290E00895209109
:101A6000CE0425FFD7CF85E390E008952091CE04E2
:101A700026FFD0CF8AE290E008952091CE0426FF81
:101A8000C9CF81E390E0089589E390E0089583EE63
:101A900090E0089582EE90E0089586EE90E008953B
:101AA0009091CE0492FF06C0282F28712830F9F4B7
:101AB000877F846093FF06C0282F28712831F1F4B6
:101AC000877E84612091CF0420FF06C0382F3871B3
:101AD0003830D9F4877F816021FF06C0282F287114
:101AE0002831D1F4877E816194FD877E0895282F67
:101AF00024712430F9F68B7F8860DCCF282F247185
:101B0000243101F78B7E8861DDCF382F3171313080
:101B100019F78E7F8860E0CF282F2171213121F7BE
:101B20008E7E8861E1CF08950C94930D08950C94F6
:101B3000960DE82FF0E0EE55FD4F80810895CF928D
:101B4000DF92EF92FF920F931F93CF93DF9388E979
:101B500096E00E949B0982EAE82E82E0F82ED0E00F
:101B6000C0E093E9C92E96E0D92E0BE816E0DF938A
:101B7000CF93DF92CF920E94340A80E996E00E94D0
:101B80009B09F70181917F010E94C0241F928F93CE
:101B90001F930F930E94340A89E896E00E949B09E4
:101BA00021968DB79EB708960FB6F8949EBF0FBECC
:101BB0008DBFC530D105D9F6DF91CF911F910F911F
:101BC000FF90EF90DF90CF90089580EA8A95F1F72B
:101BD0000895CF93DF93AFE4B1E044E551E0C1E075
:101BE000D0E08D91E82FE295EF70F0E061A18F7069
:101BF0009E0101C0220F8A95EAF7922F90959623B5
:101C000091A382A1822B82A34A175B0751F7AAE412
:101C1000B1E061E070E08D91E82FE295EF70F0E0C7
:101C200041A18F709B0101C0220F8A95EAF7922F84
:101C30009095942391A382A1822B82A381E0AF345B
:101C4000B80749F710929D021092A20210929E02CC
:101C50001092A30210929F021092A4021092A0026E
:101C60001092A5021092A1021092A60285E00E9495
:101C7000BD0EDF91CF910C94080B8F929F92AF9283
:101C8000BF92CF92DF92EF92FF920F931F93CF9369
:101C9000DF938FE4A82E81E0B82E0DE912E0912C9D
:101CA000CC24C394D12CF50181915F01C82FC2953A
:101CB000CF70D0E099A18F70760101C0EE0C8A95AB
:101CC000EAF7892F8E2989A38AA18E2C80948821F6
:101CD0008AA30E94E50DEAE4F1E050E040E020E054
:101CE0003191A32FA295AF70B0E090968C9190E0C7
:101CF0003F7002C0959587953A95E2F780FD39C00F
:101D00008C2D042E01C0880F0A94EAF7282B4F5F10
:101D10005F4F4530510521F789A1882289A28AA108
:101D2000E82AEAA2F8018081281729F1208381E0BE
:101D3000982A0F5F1F4FF4E5AF16F1E0BF0609F0D8
:101D4000B2CF292D45E062EA72E08DE992E00E946F
:101D5000BE0E0E94120B892DDF91CF911F910F9122
:101D6000FF90EF90DF90CF90BF90AF909F908F90BB
:101D7000089580E0CBCF80E0DBCF0895FF920F93F2
:101D80001F93CF93DF93F82E092F162FD72FC42F31
:101D9000222349F081E08093B7010E94DE269093D0
:101DA000B6018093B5018091B7018823A1F080919D
:101DB000B5019091B6010E94F626069760F0EF2DCE
:101DC000F02FA12FBD2FCE0FDF2FD11DEC17FD0758
:101DD00041F41092B701DF91CF911F910F91FF90C5
:101DE000089581918D93F2CFAF92BF92CF92DF92FF
:101DF000FF920F931F93CF93DF93362F472FE82F38
:101E0000F0E0E45DF64F71110DC06491762F862FDE
:101E1000DF91CF911F910F91FF90DF90CF90BF90F6
:101E2000AF900895C72FD0E02491F22E022F10E03A
:101E300056E0659FC0011124EFEFF0E0BF010E9462
:101E4000FC2E832F90E0880F991F35E5369FD00137
:101E5000379FB00D11248A1B9B0B982F990F980F59
:101E60006F01CC1ADD0AC09ED001C19EB00DD09E7C
:101E7000B00D11248B2F949FA0011124452F5527BD
:101E80006F01C41AD50AC09EA001C19E500DD09EFC
:101E9000500D11245F01A91AB108AC9E6001AD9EDE
:101EA000D00CBC9ED00C1124CD2CDD24EC19FD09E6
:101EB000E09FE001E19FD00DF09FD00D1124ED2FA8
:101EC00062307105A1F048F46115710569F0613067
:101ED000710589F0EB2F852F07C06430710571F013
:101EE00088F066307105B1F76E2F722F91CFE22F17
:101EF0002B2F8D2FF9CFE22F252FF6CFEB2F822F0F
:101F00002D2FF2CF2B2F8F2DE52FEECFCF93DF93F9
:101F1000762FE901682F842F0E94F40E798368835D
:101F20008A83DF91CF9108958091A702982F9E7F99
:101F300039F48091A702817082608093A70208958E
:101F40008430B8F7089588E090E00C94342FCF9255
:101F5000DF92EF92FF926B017C010E94940FB70118
:101F6000A60188E090E0FF90EF90DF90CF900C9476
:101F7000522FE7EAF2E083E0808311828FEF8283C1
:101F80008383148260817181828193810C94A70F75
:101F90008091750280FF76C083E199E09F938F93D3
:101FA0000E94340A809175020F900F9080FF6AC0E2
:101FB0008091A70281701F928F9386EF98E09F9384
:101FC0008F930E94340A809175020F900F900F90AA
:101FD0000F9080FF57C08091A70286951F928F9324
:101FE0008BED98E09F938F930E94340A8091750245
:101FF0000F900F900F900F9080FF44C08091A80227
:102000001F928F9381EC98E09F938F930E94340AE4
:10201000809175020F900F900F900F9080FF32C04B
:102020008091A9021F928F9387EA98E09F938F93E4
:102030000E94340A809175020F900F900F900F90BC
:1020400080FF20C08091AA021F928F938DE898E0B4
:102050009F938F930E94340A809175020F900F9086
:102060000F900F9080FF0EC08091AB021F928F9354
:1020700081E798E09F938F930E94340A0F900F900E
:102080000F900F9008958091AB02833018F48F5F0A
:102090008093AB026091A7027091A8028091A9027F
:1020A0009091AA020C94A70F8091AB02882319F09B
:1020B00081508093AB026091A7027091A802809139
:1020C000A9029091AA020C94A70F70E00C941B1324
:1020D000609101018091A70280FF0AC080910001F8
:1020E00023E0829FC001112484559D4F0C946510FC
:1020F000809102019091030123E0829FF00111245D
:10210000E455FD4F891750F71182108212828F5FBC
:102110003396F8CF8091A7028E7F8093A7026091BB
:10212000A7027091A8028091A9029091AA020E9430
:10213000A70F8091750280FF0FC08091A702817068
:102140001F928F9383EF96E09F938F930E94340AA0
:102150000F900F900F900F902FEF80E792E021509B
:1021600080409040E1F700C000000C94681090910E
:10217000A70290FF14C0909102012091030133E067
:10218000939FF0011124E455FD4F921710F00C9429
:1021900068108183608342839F5F3396F6CF0895F2
:1021A000EF92FF920F931F93CF93DF9300D00F9284
:1021B000CDB7DEB7182F062FF42EE22E8091A7029E
:1021C00080FF43C0E82FE695F0E0EC5AFE4F908187
:1021D0009093B9018E7F823059F49E012F5F3F4F5B
:1021E000812F0E94860F4B8169818A810E94B710DE
:1021F0001093A8020093A902F092AA02EE2079F1AE
:102200006091A7027091A8028091A9029091AA0200
:102210000E94A70F8091750280FF17C08091AA02CB
:102220001F928F938091A9021F928F938091A80291
:102230001F928F938EEC96E09F938F930E94340AA7
:102240000FB6F894DEBF0FBECDBF0F900F900F906A
:10225000DF91CF911F910F91FF90EF9008958091A2
:10226000750280FFF2CF1F92FF921F920F931F9271
:102270001F9387EA96E0E0CFE7EAF2E09181282F0A
:102280004381628188E0890F0C94D01081E00C9426
:102290003C11E7EAF2E09181282F4381628188EFC7
:1022A000890F0C94D01081E00C944911E7EAF2E018
:1022B000628121E1620F08F46FEF282F4381818151
:1022C0000C94D01081E00C945611E7EAF2E06281A0
:1022D00021E1621B08F460E0282F438181810C9486
:1022E000D01081E00C946511E7EAF2E0438121E12E
:1022F000420F08F44FEF282F628181810C94D01097
:1023000081E00C947411E7EAF2E0438121E1421B81
:1023100008F440E0282F628181810C94D01081E084
:102320000C94831120E00C94D0108091A70280FFC0
:1023300035C0817082608093A702662329F1609185
:10234000A7027091A8028091A9029091AA020E940E
:10235000A70F8091750280FF0FC08091A70286951C
:102360001F928F9387EB97E09F938F930E94340A7D
:102370000F900F900F900F904091AA026091A902C8
:102380008091A8020C9492118091750280FFF4CF85
:102390001F9281E08F9389E997E0E6CF0895682F37
:1023A00081E00C94951181E00C94CF11682F9091ED
:1023B000A70296958FEF890F09F481E00C9495118F
:1023C00081E00C94D61161E00C9495118091A702E4
:1023D00081608093A7028091750280FF0DC01F92DB
:1023E00081E08F938BE297E09F938F930E94340A52
:1023F0000F900F900F900F908091A70286950C94EC
:10240000E3118091750280FF10C08091A702809532
:1024100081701F928F9382E697E09F938F930E9423
:10242000340A0F900F900F900F908091A70280FDBB
:102430000C948A100C94E61160E00C949511809134
:10244000B80181115EC08091750280FF14C08AE5D9
:1024500098E09F938F930E94340A809175020F90A9
:102460000F9080FF08C084E498E09F938F930E94B0
:10247000340A0F900F900E94D824811110C08091CF
:10248000750280FF08C08CE198E09F938F930E94B3
:10249000340A0F900F900E9475250E94B90F0E9478
:1024A000A30F6093A7027093A8028093A902909350
:1024B000AA026E7FC1F48091750280FF08C083ED8F
:1024C00097E09F938F930E94340A0F900F900E9481
:1024D000B90F0E94A30F6093A7027093A802809384
:1024E000A9029093AA020E94940F0E94C80F8091A3
:1024F000A70280FF03C086950E941C1281E0809392
:10250000B8010895FA01811101C0FB0109940F93EC
:102510001F93CF938C01FB01C281CC2309F44DC0E2
:102520000E94BF238272F801E25CFC45E431F105B0
:1025300038F4EA58F04D0C94102F0E940112C0E0BC
:102540008C2FCF911F910F91089540EE51E163EDD3
:1025500071E10E948212F3CF43ED51E160EE71E12F
:10256000F8CF43E551E166E471E1F3CF46E451E190
:1025700063E571E1EECF41E751E162E671E1E9CF58
:1025800042E651E161E771E1E4CF4FE851E160E8F3
:1025900071E1DFCF40E851E16FE871E1DACF44E566
:1025A00050E163E470E1D5CF43E450E164E570E1CC
:1025B000D0CF81E00E94E311C2CFC1E0C1CF2AB1E8
:1025C000342F3F70A1E0B0E001C0AA0F3A95EAF7BE
:1025D0002A2B2AB942954F70E42FF0E022A14A2F0E
:1025E0004095422332A1A32B5FB7F8949B01220FA1
:1025F000331F260F371F280F391F2817390741F4BB
:102600005FBF87EC90E00197F1F700C000000895EC
:10261000FC016191CF0178E0ABB9000000C067FF19
:102620004BB9660F000000C000C000C04BB900C02D
:102630007A9591F7E2CF43E90C94DF120C943D0AAE
:1026400086988E9A85988D9A8FB186FB882780F917
:102650007D9905C090E0892B8093BD01089592E09B
:10266000FACFE091BD01EE0FEE0FE093BD014FB147
:1026700046FB882780F94FB145FB222720F945FF0B
:1026800002C022E030E0822BE82BE093BD01EF7026
:10269000F0E0EA5AFE4F80819091BC01890F80934F
:1026A000BC0182304CF08091BB018F5F8093BB01F5
:1026B00060E080E00E941E138091BC018F3F4CF4CB
:1026C0008091BB0181508093BB0161E080E00E945A
:1026D0001E138091BC01817887FF03C081508E6FEB
:1026E0008F5F8093BC010895CF92DF92EF92FF92AB
:1026F0000F931F93CF93DF936C017B0164E670E02F
:1027000088E70E94BA18EC0197FD12C010E000E0C3
:10271000F601E00FF11F849164E670E00E94161943
:10272000EC01892B29F40F5F1F4F0E151F0581F750
:102730000E949919CE01DF91CF911F910F91FF90C7
:10274000EF90DF90CF900895E4ECF2E080E092E02B
:10275000DF019C011D9221503040E1F7F093C90444
:10276000E093C8048FEF9FEF9093EA018093E90113
:1027700008950E94460A8093E50180FD13C080E819
:102780008093E4010E94B4186DE070E084E39BE064
:102790000E947413892B41F088E19BE00E949B0901
:1027A00080E0089580E2ECCF8091E50163E070E085
:1027B00081FD09C085E19BE00E947413892B61F0C3
:1027C0008FEE9AE0EBCF8CEE9AE00E947413892B87
:1027D00019F084ED9AE0E2CF6DE070E087EC9AE0CA
:1027E0000E947413892B19F080EB9AE0D7CF0E94D6
:1027F000EA26605A75418F4F9F4F6093C4047093CF
:10280000C5048093C6049093C7040E94A41381E07A
:102810008093E8018093E7011092E60108952091EA
:10282000E40136E0839FC0011124629F800D911D59
:102830001124811522E0920714F090E080E08C537F
:102840009D4F9093C9048093C80408952091C804B3
:102850003091C9042E5B32404091E401642F70E056
:10286000C9010E94FC2E481B463010F4240F311D74
:10287000211582E0380710F030E020E02C533D4F66
:102880003093C9042093C80408951F93CF93DF9316
:10289000162F8A3031F481E0DF91CF911F910C9493
:1028A000BF148D3011F480E0F7CFC091C804D091EF
:1028B000C90496E0FE01AEEBB1E001900D929A954D
:1028C000E1F7803EC8F086E0FE0111928A95E9F7B3
:1028D00011111EC0C091C804D091C90446E050E057
:1028E000BE018EEB91E00E941F2F892BF9F4DF913E
:1028F000CF911F910C942614F6E08F9FB001112404
:102900006F5B744F46E050E0CE010E94162FE0CF7F
:10291000E091C804F091C9049F012A5F3F4F2E1730
:102920003F07C1F2808180958193F9CFC45CD2408A
:10293000CE0125E0969587952A95E1F721E030E0D4
:10294000A90102C0440F551F8A95E2F7CA014091C0
:10295000E9015091EA01842B952B269645E0D69506
:10296000C7954A95E1F702C0220F331FCA95E2F7D7
:10297000822B932B9093EA018093E901B8CFCF93F8
:10298000382FE091C804F091C904E45CF240209132
:10299000E401622F70E0CF010E94FC2E281B822FE1
:1029A000332369F066E00E94F02EC82FC15010F466
:1029B000CF91089560E080E20E944514F7CF9F0117
:1029C000280F311D2115324018F080E0F0E0E0E0E2
:1029D0008E0F9F2F911D8C539D4F9093C904809310
:1029E000C804E6CF1F93CF93DF93EC01162FFE01AF
:1029F0008491811104C0DF91CF911F910895612FBF
:102A00000E9445142196F3CF0F931F93CF93DF932A
:102A1000613002E0700710F060E072E04091E9017F
:102A20005091EA01A4ECB2E030E020E0C1E0D0E057
:102A30002617370749F45093EA014093E901DF91E3
:102A4000CF911F910F910895FC01E20FF31FE491C4
:102A5000FC91FE1781F0EC93F90115E0F695E795EE
:102A60001A95E1F78E0102C0000F111FEA95E2F7F7
:102A7000F801402B5F2B2F5F3F4F1196D9CF0E945B
:102A8000EA26605A75418F4F9F4F6093C40470933C
:102A9000C5048093C6049093C7048091E701811117
:102AA0000CC062E070E087E59AE00E947413892B05
:102AB00039F083E49AE00E949B098091E701089530
:102AC00081E08093E701F9CF2F923F925F926F925E
:102AD0007F928F929F92AF92BF92CF92DF92EF92AE
:102AE000FF920F931F93CF93DF932091E9013091D1
:102AF000EA012115310531F08091E60161E070E0D5
:102B0000882399F0DF91CF911F910F91FF90EF9063
:102B1000DF90CF90BF90AF909F908F907F906F90FD
:102B20005F903F902F9008958F5F082F10E01B015A
:102B3000082E02C0220C331C0A94E2F7A1014223A2
:102B40005323452B89F39091E50190FD31C0829587
:102B5000880F8076809307019801369527953695E2
:102B6000279520930A01815E8093080110920B0142
:102B700024E630E047E050E065E071E088E70E943D
:102B80004519892B19F18DE89AE0DF91CF911F91BA
:102B90000F91FF90EF90DF90CF90BF90AF909F90FC
:102BA0008F907F906F905F903F902F900C949B0937
:102BB000880F880F880F8093070110920A01895FA0
:102BC0008093080183E080930B01D2CFA80125E018
:102BD000440F551F2A95E1F78091E50180FD10C053
:102BE0004C535D4F04E610E020E230E060E488E7FB
:102BF0000E946C19892B09F469C084E79AE0C5CF5B
:102C0000E4ECF1E080E2DF011D928A95E9F7AAE6A3
:102C1000B1E006E611E08EE6C82E81E0D82E97E0FE
:102C2000592E772473948D91E80129918E01240FF8
:102C3000352F311D2C533D4FE82FF0E0EC53FE4F64
:102C400090E080E0652C681A872C082E01C0880C63
:102C50000A94EAF77901A12CE701B9907E01B82026
:102C6000662D6A196770962E062E000C770BDB2DE9
:102C700001C0DD0F9A94EAF771956195710967704B
:102C8000772701C0B6946A95EAF7BD2A6081962E2F
:102C90009B289082A39468E0A612DECF019631961D
:102CA0008830910579F6CA16DB0609F0BCCF04E638
:102CB00010E020E230E044EC51E060E488E70E945C
:102CC0006C19892B19F089E59AE05FCF0E943F15B6
:102CD000E101C095D0958091E9019091EA01C82366
:102CE000D923D093EA01C093E9010CCF8091E70189
:102CF000882389F062E070E081E49AE00E94741316
:102D0000892B39F08CE29AE00E949B098091E701BF
:102D100008951092E7018091E70191E089270895D5
:102D20000F931F938091E801882301F160E080E018
:102D30000E940F140E94480A0E9464158091E701C6
:102D40008823A1F00E94EA260091C4041091C504D2
:102D50002091C6043091C704601B710B820B930B4A
:102D600097FD04C01F910F910C9476161F910F913F
:102D700008950F931F93CF93DF93C62FD42F022F65
:102D8000FC0182818823C9F06093ED010E94DE2658
:102D90009093EC018093EB0180E28C0F883008F077
:102DA00050C0C77081E001C0880FCA95EAF7DF9173
:102DB000CF911F910F910C94DA1B1091ED01161316
:102DC00035C08091EB019091EC010E94F626883C81
:102DD000910560F5C0E2CD0F1D17B9F080E2810FBB
:102DE000883040F4177081E001C0880F1A95EAF727
:102DF0000E94E11BC83048F481E09D2F977001C00C
:102E0000880F9A95EAF70E94DA1B802F0E94BF1B59
:102E1000C830B8F4D77081E001C0880FDA95EAF7BE
:102E2000DF91CF911F910F910C94E11B80E28C0FE9
:102E3000883038F4C77081E001C0880FCA95EAF77E
:102E4000EFCFDF91CF911F910F9108959C01CB019E
:102E5000233F4CE5340731F190F4283DFCE53F0772
:102E6000E9F0293D4CE5340769F1273D3C4579F40B
:102E700026E241EE61EE0E94B91680E00895253FFA
:102E8000FCE53F07B9F090F0263F3C45B9F0FC0166
:102E900082818823D1F01092ED01089527E245EE5A
:102EA00065EEE9CF26E241EE60EEE5CF27E245EEA2
:102EB00064EEE1CF26E241EE62EEDDCF27E245EEA1
:102EC00066EED9CF28E241E0EBCF81E00895CF93C1
:102ED000DF93EC01FB018281882309F419C1C23020
:102EE000FCE5DF07C0F1C6319CE5D90730F09E0153
:102EF0002A5F3C452930310570F50E94EB24909300
:102F0000CF048093CE04C031ECE5DE0709F4CFC0D6
:102F100008F05BC0C8308CE5D80709F4B6C088F566
:102F2000C430ECE5DE0709F4A8C0C0F4C2308CE57B
:102F3000D80709F49CC08091CE048260C330DC4580
:102F400009F498C08091CE049091CF040E94F92496
:102F50000E943D1E80E0DF91CF9108958091CE04C4
:102F60008061C630ECE5DE0709F484C08091CE04B0
:102F70008860C730DC4508F47DC08091CE04806253
:102F800079C0CC308CE5D80709F489C070F4809101
:102F9000CE048C60CA30ECE5DE0709F46BC008F49F
:102FA00078C08091CE048E7F65C0CE308CE5D80786
:102FB00009F479C08091CE048B7FCF30DC4508F4D2
:102FC00059C08091CE048F7E55C0CB3FECE5DE0723
:102FD00009F457C030F5C3318CE5D80709F46FC048
:102FE00078F4C131ECE5DE0709F465C0C231DC4597
:102FF00009F0A8CF0E943D1E8091CE048F773AC081
:10300000C5318CE5D80709F462C008F476C0809118
:10301000CF048160CA3FDC4509F094CF8093CF0490
:1030200091CFCF3FFCE5DF0709F44DC088F48091D4
:10303000CF048D7FCD3F9CE5D90781F38091CF04EC
:103040008E7FCE3FDC4550F38091CF048360E6CF86
:10305000C130FDE5DF0709F459C008F444C080E041
:10306000C230DD4509F06ECF0E9477256BCF80918D
:10307000CE0481608093CE0465CF8091CE048460BD
:10308000F9CF8091CF048260C9CF8091CE04806453
:10309000F1CF0E943D1E8091CE048068EBCF8091DD
:1030A000CE048D7FE7CF8091CE04877FE3CF8091E0
:1030B000CE048F7DDFCF8091CE048F7BDBCF8091DC
:1030C000CE04837FD7CF8091CF048C7FA7CF809110
:1030D000CE0482FB992790F921E0922790FB82F998
:1030E00090FB83F9C7CF8091CF04982F9095917072
:1030F0008E7F892B90FB81F991CF0E943D1E90918C
:10310000CE04892F97FB87F98058B4CF81E0ACCFEC
:1031100081E021CFCF93DF93EB0186319C4511F500
:103120000E94BF239A81992399F08A7A91E009F449
:1031300090E09093EE01811109C089E20E949A23E8
:103140000E940B2480E0DF91CF91089585E3F6CFB4
:103150008091EE01811104C089E20E94A123F0CF89
:1031600085E3FBCF81E0EFCF1092B9008CE0809334
:10317000B8000895EF92FF920F931F93CF93DF93C0
:10318000182FEB011092BC0084EA8093BC000E94CF
:10319000DE267C018091BC0087FF27C08091B900AA
:1031A000887F883029F08091B900887F8031D9F5F7
:1031B0001093BB0084E88093BC000E94DE268C0143
:1031C0008091BC0087FF24C02091B900287F90E047
:1031D00080E02831B1F081E090E0203411F490E0FB
:1031E00080E09195819591090CC0CF3FDC0791F269
:1031F0000E94DE268E199F098C179D0758F28EEFCC
:103200009FEFDF91CF911F910F91FF90EF90089565
:10321000CF3FDC07A9F20E94DE26801B910B8C17A2
:103220009D0770F2ECCF8FEF9FEFEBCF0F931F93C3
:10323000CF93DF93EB018093BB0084E88093BC00C5
:103240000E94DE268C018091BC0087FF11C0209176
:10325000B900287F81E090E0283211F490E080E00E
:10326000919581959109DF91CF911F910F910895CB
:10327000CF3FDC0741F30E94DE26801B910B8C17A9
:103280009D0708F38EEF9FEFEECFCF92DF92EF9284
:10329000FF920F931F93CF93DF936B018A01790104
:1032A000B9010E94BA18E6010C0D1D1DC017D10707
:1032B00061F424E92093BC00DF91CF911F910F911D
:1032C000FF90EF90DF90CF90089597FDF2CFB70178
:1032D00089910E941619EACFCF92DF92EF92FF9266
:1032E0000F931F93CF93DF93C62F6A017901B80123
:1032F0000E94BA1897FD0CC0B8018C2F0E941619B5
:10330000E601EC0CFD1CCE15DF0511F097FF0CC09B
:1033100024E92093BC00DF91CF911F910F91FF9082
:10332000EF90DF90CF900895B80189910E9416190F
:10333000EACF84E98093BC0008959093F4018093D0
:10334000F3010895E091F301F091F401309721F039
:103350000190F081E02D099480E00895EF92FF92B2
:103360000F931F93CF93DF93EC01E091F301F09162
:10337000F401309709F446C080911801882341F088
:103380008091CE0487FF04C08881898385E088838B
:103390000280F381E02DCE0109958091750282FFB4
:1033A00031C080FF04C089E890E10E949B0910E0D1
:1033B00000E083E8E82E80E1F82E8091750280FF1E
:1033C0000EC0FE01E00FF11F80811F928F93FF92CC
:1033D000EF920E94340A0F900F900F900F900F5FA2
:1033E0001F4F0830110549F78091750280FF0AC010
:1033F00081E890E1DF91CF911F910F91FF90EF90C5
:103400000C949B09DF91CF911F910F91FF90EF904A
:1034100008952091F1013091F2012817390771F0D8
:103420009093F2018093F101E091F301F091F401A6
:10343000309721F00680F781E02D099408952091BE
:10344000EF013091F0012817390771F09093F001E6
:103450008093EF01E091F301F091F401309721F0B6
:103460000084F185E02D0994089585B7806885BFB3
:1034700085B7806885BF0895089508950C943C1A17
:103480000C94B20A0E94351A0E943D1A0C943E1AFE
:1034900081E008950C94481A0E94D5260E94E90DF7
:1034A00080E00E94B9130E9456270E941F120C94BC
:1034B000401ACF93C82F8091750282FF1EC080FFF3
:1034C0001CC082EA90E10E949B098091750280FFF6
:1034D00014C01F92CF938DE990E19F938F930E9428
:1034E000340A809175020F900F900F900F9080FF1B
:1034F00004C08BE990E10E949B098C2FCF910C9422
:103500001D0B9F92AF92BF92CF92DF92EF92FF92EC
:103510000F931F93CF93DF93CDB7DEB72A970FB6E4
:10352000F894DEBF0FBECDBF0E943D0EC82E0E9494
:103530004A1A882309F463C086EFA82E81E0B82ECA
:1035400010E000E0902E802F0E94990DE82EF501EA
:10355000D1905F01D81609F44CC08091750281FDAD
:103560000E949F0D80E0FF24F394DE249D2D9F2177
:10357000D9F18E839F82EF2081E009F480E0888773
:103580000E94DE268160782F9A8789874E815F812D
:1035900068858A850E94221BF801EA50FE4F8081CF
:1035A000F826F0820E949016C1100E943F150E94DA
:1035B000A2199091F501891799F10E94A21980939F
:1035C000F5012A960FB6F894DEBF0FBECDBFDF918E
:1035D000CF911F910F91FF90EF90DF90CF90BF9010
:1035E000AF909F900C94591A8F5FFF0C853009F0B3
:1035F000BDCF0F5F1F4F0530110509F0A3CF8FEF2F
:1036000089838A831B820E94DE268160782F9D83B6
:103610008C8349815A816B818D810E94221BC2CF8C
:103620002A960FB6F894DEBF0FBECDBFDF91CF91C3
:103630001F910F91FF90EF90DF90CF90BF90AF90D0
:103640009F900895CF93DF93CDB7DEB72B970FB63A
:10365000F894DEBF0FBECDBF4F83588769877A8746
:103660008B871E821D8285E0FE013796DE01119652
:1036700001900D928A95E1F749815A816B817C8195
:103680008D819E812B960FB6F894DEBF0FBECDBF05
:10369000DF91CF910C94B320FC01808191810C9437
:1036A0006C23CF93C82F882309F43FC08CEF8C0F75
:1036B000813AA0F46C2F80910C0190910D010E9431
:1036C0009025882329F08C2F0E94A1230E940B248F
:1036D0008C2F0E949A23CF910C940B2480E28C0FA4
:1036E000883048F4C77081E001C0880FCA95EAF7B6
:1036F0000E94C223F0CFEBE5EC0FE33040F4F0E0A2
:10370000E456FE4F808190E0CF910C94091AC85A7C
:10371000C73158F4EC2FF0E0EE0FFF1FE259FE4FD7
:1037200080819181CF910C941F1ACF9108958823A5
:1037300029F19CEF980F913A20F40E94A1230C9458
:103740000B2490E2980F983050F4877091E001C0FC
:10375000990F8A95EAF7892F0E94C823F0CF9BE53D
:10376000980F933020F490E080E00C94091A885A66
:10377000873120F490E080E00C941F1A0895CF93D5
:10378000C82F0E94511BC93369F42FEF87EE93E0D5
:10379000215080409040E1F700C000008C2FCF9175
:1037A0000C94971B2FEF89EF90E0215080409040C0
:1037B000E1F7F2CF882321F00E94C2230C940B245E
:1037C0000895882321F00E94C8230C940B240895A7
:1037D000BF92CF92DF92EF92FF920F931F93CF93FE
:1037E000DF936C01D62FC72FFC01058102950F7066
:1037F000128111110E94DF230E94B823E82E882332
:1038000071F01123B1F080E28D0F883090F082E0EA
:103810000E9456240E94B82391E0E82EE926BC2E8F
:10382000B2949FE0B922EB2DF0E0E657F04D0C94F6
:10383000102FE12CF4CF0C2F0F70C07F11F00295E8
:10384000007F1123A9F0002359F080E28D0F88300A
:1038500010F0D11109C0802F0E94C2230E940B24B6
:103860008D2F0E94511B14C0802F0E94D223F6CFAF
:103870008D2F0E94971B002359F080E28D0F883016
:1038800010F0D1112BC0802F0E94C8230E940B245E
:10389000EB2DE850FF0B349720F40E94A2190E94F0
:1038A0001D0BEE2009F49AC10E94B42380FD96C13D
:1038B000F60112820E94AE230E943722C6010E94A6
:1038C0000F1E0E94AE23DF91CF911F910F91FF90A9
:1038D000EF90DF90CF90BF900C945822802F0E94E1
:1038E000D823D4CFFC2FFF70FF2EC07FC03219F039
:1038F000F29480EFF822DD2369F0D13049F11123F1
:1039000091F1002351F1F601858180FFA9CF8F70DD
:10391000858323C0112381F0011106C00E94F22388
:103920008F290E94DA1BB4CF0130C1F70E94F22325
:103930008F290E94F823ACCF011106C00E940124F8
:103940008F2D0E94E11BA4CF013009F4A1CFF6CF47
:10395000112329F0063008F09BCF8F2DE2CF0530E0
:1039600008F096CFEDCF002359F3D93349F4FFEF98
:1039700027EE33E0F15020403040E1F700C0000076
:103980008D2F0E94971B84CF8C2F869586958370F0
:1039900069F0813009F07CCF8D2F9C2F937011112D
:1039A00002C090E080E00E941F1A72CF8D2F9C2FE2
:1039B0009370111102C090E080E00E94091A68CF54
:1039C0008C2F837009F041C0111162CF4D2F4295A9
:1039D00046954770440F440F0D2F0F7010E030E0F4
:1039E00020E0042E04C0000F111F221F331F0A9471
:1039F000D2F760E070E0CB01D4FF0FC06FE070E061
:103A000080E090E004C0660F771F881F991F4A95D9
:103A1000D2F76095709580959095C695C695C370C0
:103A2000602B712B822B932BC23049F058F4C1309C
:103A300019F00E94E9212CCF0E94D72129CF0E94A2
:103A4000FB2126CF0E94D52123CF8695112311F08B
:103A50008C2F8170882309F41BCF4D2F42954695FA
:103A60004770440F440F0D2F0F7010E030E020E03E
:103A7000042E04C0000F111F221F331F0A94D2F717
:103A800060E070E0CB01D4FF0FC06FE070E080E039
:103A900090E004C0660F771F881F991F4A95D2F7E0
:103AA0006095709580959095C695C695C370602B6E
:103AB000712B822B932BC23049F058F4C13019F08E
:103AC0000E94AE22E5CE0E949C22E2CE0E94C0223D
:103AD000DFCE0E941122DCCECF70112329F08C2F73
:103AE0000E9437228D2F1DCF8D2F0E94E11B8C2F1E
:103AF0000E945822CDCED23F89F160F4D03FC9F068
:103B0000D13F29F1112309F442C00111A9CE8C2F14
:103B10008F7121C0D33F39F1D43FA1F7112369F14F
:103B2000CF718C2F0E94372263E08C2F0E9441249A
:103B3000AFCE112341F0053008F0AACE8C2F8F7143
:103B40000E947B22A5CE063008F0A2CEF7CF8C2FA4
:103B50008F71112369F20E9437229ACE8C2F8F71B8
:103B60001123C9F3C5CF112329F08C2F8F710E9427
:103B700022228ECE0E941D228BCE81E00E945624EE
:103B8000023008F485CE82E00E94562481CE0023C4
:103B900091F0D93341F48FEF97EEE3E081509040FC
:103BA000E040E1F7EBCEFFEF29EF30E0F1502040AD
:103BB0003040E1F7E3CE8C2F8F719ACF4C2F4F70AE
:103BC0006D2FC6010E948D0B0E944D2161CE4C2F9E
:103BD0004F706D2FC6010E94900B5ACEDF91CF918E
:103BE0001F910F91FF90EF90DF90CF90BF900895BD
:103BF0000F931F93CF93DF93EC01688179818A81C2
:103C00000E9476238C010E94D2220E94D421B80106
:103C1000CE01DF91CF911F910F910C94E81BCF93B0
:103C2000DF93EC018B819C81892B29F0888199811C
:103C300089238F3F19F4DF91CF910895CE010E941F
:103C4000350B8823C1F3CE010E94F81DCE01DF9110
:103C5000CF910C94FD0A0E94DF230E94EF230E9463
:103C60000B2490E080E00E94091A90E080E00C9420
:103C70001F1A0E94A8230C942B1E0E94CF230C9481
:103C8000391EE92FE295EF70E250EE3070F4F0E06B
:103C9000E656F04D0C94102F803F19F020F4883E2A
:103CA00020F481E00895843FE1F380E00895883EA8
:103CB000C0F3813FD1F7F5CF93FB882780F90895B2
:103CC0000E946C230C94411ECF93DF9300D000D050
:103CD0000F92CDB7DEB70F900F900F900F900F900F
:103CE000DF91CF910895CF93DF9300D000D000D023
:103CF000CDB7DEB726960FB6F894DEBF0FBECDBFA8
:103D0000DF91CF9108951F93CF93DF93C091FC0172
:103D100016E08091FD018C1304C0DF91CF911F91BB
:103D20000895D0E01C9FF0011D9FF00D1124E2507A
:103D3000FE4F4081518162817381848195810E940F
:103D4000731E2196C770E5CF40912E0250912F022D
:103D50006091300270913102809132029091330271
:103D60000C94731E1F93CF93DF9380913302807F57
:103D7000A9F480913002882389F08091FC01C091E0
:103D8000FD0160912E0270912F02A0913102B0913D
:103D90003202D62FD72316E0C81304C0DF91CF918B
:103DA0001F91089590E0109711F0DF3F19F40196EC
:103DB0008770F2CF189F9001199F300D1124F901DF
:103DC000E250FE4F41814713F2CF40814613EFCFBF
:103DD00042814111ECCF438154814A1B5B0B483C2B
:103DE000510528F7809133028F70806180933302F0
:103DF000F901ED5FFD4F80818F70806180838EE2DD
:103E000092E00E940F1EDF91CF911F910C94831EB0
:103E1000AF92BF92CF92DF92EF92FF920F931F93D8
:103E2000CF93DF93CDB7DEB761970FB6F894DEBFBF
:103E30000FBECDBF8C0185E0F801DE011D9601901B
:103E40000D928A95E1F7F80140815181E2808EE27E
:103E5000C82E82E0D82E6091310270913202611535
:103E6000710509F461C190912E0220912F02892FD2
:103E700082238F3F09F458C1A380B480F0903002B0
:103E8000F501E61BF70BFF2009F4FCC0809133021B
:103E9000382F307FE83CF10508F0B2C0311179C00D
:103EA000FE2C251323C0941321C0E1101FC08F7076
:103EB0008061809333020E94A41EC6010E940F1EDF
:103EC00080913302F80185838F2D61960FB6F894A7
:103ED000DEBF0FBECDBFDF91CF911F910F91FF903D
:103EE000EF90DF90CF90BF90AF900895AB2829F06E
:103EF000842F85238F3F09F033C180E0F82FF170C4
:103F0000DF2E80FF3CC08091FC012091FD0136E056
:103F1000821315C04D875E878D859E850E946C2318
:103F2000292F22952F702230F0F0243018F59F7041
:103F3000F1F0F8019581907FD1F4D12C1EC090E072
:103F4000389FF001399FF00D1124E250FE4F61813E
:103F5000651306C06081641303C062816E110FC0D7
:103F600001968770D5CF9F7011F0882331F3805E62
:103F7000883018F3C8010E940F1EFD2CA5CFEE203B
:103F800009F4A2CF80913302816080933302F12C37
:103F90009BCF251306C0941304C0F801EE2009F44A
:103FA0008DC04D875E878D859E850E94601E88230B
:103FB00019F1EE2009F180913302803270F02091E6
:103FC0002E0230912F0238872F831986BB86AA864E
:103FD0008C87CE0107960E940F1E86E0F801AEE2A4
:103FE000B2E001900D928A95E1F70E94B21E0E9404
:103FF000A41EFF24F39468CFC8010E940F1EF9CFBE
:10400000311113C07A2DB98AA88A6E2D89890E9430
:10401000641E8EE292E00E940F1E86E0F60111926D
:104020008A95E9F70E94A41EB2CF25130FC09413FE
:104030000DC0E1100BC0F8018583C8010E940F1E5E
:1040400086E0F60111928A95E9F73ECF4D875E87AB
:104050008D859E850E94601E882371F2EE2061F29C
:1040600080913302803208F4B8CF20912E02309133
:104070002F023A8329831B82BD82AC828E83CE01BC
:104080000196A9CFE83CF10508F041C0FE2CEE20D6
:1040900009F4B2CF25132AC0941328C080913302AB
:1040A00080FD1BC0982F907FC1F0F8018583903F61
:1040B00031F0982F907F905F8F70892B8583C80196
:1040C0000E940F1E86E0F801AEE2B2E001900D9270
:1040D0008A95E1F70E94A41EF7CE86E0F801AEE2D1
:1040E000B2E001900D928A95E1F7EECE4D875E87A2
:1040F0008D859E850E94601E81116FCF8091330255
:10410000816080933302C8010E940F1EDDCE7A2D9C
:10411000B98AA88A6E2D89890E94641E86E0F601FC
:1041200011928A95E9F7D6CFEE2009F465CF4D8735
:104130005E878D859E850E94601EF82E882309F477
:104140005BCF86E0F801AEE2B2E001900D928A9575
:10415000E1F78EE292E00E944C1B0E94B21EBACFA1
:1041600081E08E25CBCE1F93CF93DF93CDB7DEB703
:104170002C970FB6F894DEBF0FBECDBF4F83588784
:1041800069877A878B879C87CE0107960E94081FD4
:10419000882369F08A859B85892B39F04F81588562
:1041A000842F85238F3F09F071C016E05FC086E041
:1041B000FE013796DE01119601900D928A95E1F786
:1041C0008A859B85892B89F388859F8189238F3FE9
:1041D00061F32091FD0130E0C901019687709927B4
:1041E0004091FC014817190671F40E943D1E10927F
:1041F000FD011092FC0186E0EEE2F2E0DF011D928B
:104200008A95E9F7D2CF96E0929FD001939FB00DA7
:104210001124A250BE4FFE01319601900D929A9545
:10422000E1F78093FD010E94831EBFCF819FC001F3
:10423000112482509E4F0E94081F8823E9F0E091CC
:10424000FC011E9FF0011124E250FE4F408151817C
:1042500062817381848195810E94731E8091FC012B
:1042600090E00196877099278093FC018091FC0172
:104270009091FD018913DACF2C960FB6F894DEBF2A
:104280000FBECDBFDF91CF911F91089569857A85CB
:104290008B859C850E94731E88CFEF92FF920F93AF
:1042A0001F93CF93DF938C01892B81F0F12CEE24A7
:1042B000E394E8012196F8018491843770F4843006
:1042C00008F05FC08130B1F08230A1F1DF91CF9171
:1042D0001F910F91FF90EF900895853709F44CC01E
:1042E00008F43DC09CE7980F903780F78F770E94C5
:1042F000971B49C00E5F1F4FFE01849190E2980FFB
:10430000983060F48770FE2D01C0FF0F8A95EAF7A0
:104310008F2F0E94E2230E940B2402C00E94511B97
:104320008F2D815030F2EFE9FFE03197F1F700C0B7
:104330000000F7CF0E5F1F4FFE01849190E2980FAF
:10434000983050F48770FE2D01C0FF0F8A95EAF770
:104350008F2F0E94E823DFCF0E94971BE1CF0E5FD3
:104360001F4FFE01C491C150D8F28FE99FE0019721
:10437000F1F700C00000F7CF0E5F1F4FFE01F49071
:10438000CFCF0E94511B8E01CBCF08950C94C52135
:104390000E94C62160934C0270934D0280934E029E
:1043A00090934F020C942B1E08950C94C8210F93E8
:1043B0001F9300914C0210914D0220914E023091BA
:1043C0004F02602B712B822B932B1F910F910C941A
:1043D000C8210F931F9300914C0210914D02209120
:1043E0004E0230914F0260237123822393231F9149
:1043F0000F910C94C8210F931F9300914C021091C0
:104400004D0220914E0230914F0260277127822782
:1044100093271F910F910C94C8210C94C5210C94E3
:104420000D220E940F2260934802709349028093EC
:104430004A0290934B020C942B1E60E070E0CB017B
:104440000C9411220F931F9341E050E060E070E064
:104450008A019B0104C0000F111F221F331F8A9580
:10446000D2F7C901B8011F910F910C9411220F933B
:104470001F9341E050E060E070E004C0440F551F1E
:10448000661F771F8A95D2F7809148029091490262
:10449000A0914A02B0914B028A019B01082B192B73
:1044A0002A2B3B2BC901B8011F910F910C941122AB
:1044B0000F931F9341E050E060E070E004C0440FB0
:1044C000551F661F771F8A95D2F7CB01BA016095F9
:1044D0007095809590950091480210914902209125
:1044E0004A0230914B0260237123822393231F9150
:1044F0000F910C9411220F931F9341E050E060E064
:1045000070E004C0440F551F661F771F8A95D2F7CD
:104510008091480290914902A0914A02B0914B02C9
:104520008A019B01082719272A273B27C901B801BF
:104530001F910F910C9411220F931F930091480229
:104540001091490220914A0230914B02602B712B4D
:10455000822B932B1F910F910C9411220F931F9379
:10456000009148021091490220914A0230914B0279
:1045700060237123822393231F910F910C941122A6
:104580000F931F93009148021091490220914A0213
:1045900030914B0260277127822793271F910F913B
:1045A0000C9411220895E92FEE0FEE0F9E0F890F44
:1045B000982F977041E001C0440F9A95EAF78695CD
:1045C0008695869595E0899FF0011124EC5CFD4F5E
:1045D00030E020E070E05191DF011197CB01022E15
:1045E00002C0969587950A94E2F781708195852798
:1045F000842385278C932F5F3F4F2530310559F752
:104600000895E92FEE0FEE0F9E0F890F982F9770E8
:1046100086958695869525E0829FF0011124EC5CB5
:10462000FD4F50E040E080E0219130E0092E02C0D3
:10463000369527950A94E2F721703327042E01C09E
:10464000220F0A94EAF7822B4F5F5F4F45305105E6
:1046500059F70895BF92CF92DF92EF92FF920F9396
:104660001F93CF93DF938C01C0904802D0904902F2
:10467000E0904A02F0904B0280914C0290914D02E2
:10468000A0914E02B0914F02C82AD92AEA2AFB2AE9
:10469000CFE1D0E0BC2ED701C6010C2E04C0B695E8
:1046A000A795979587950A94D2F780FD0EC021971C
:1046B00088F7B12C8B2DDF91CF911F910F91FF9037
:1046C000EF90DF90CF90BF900895B8018C2F0E949B
:1046D000AD0B019761F3EECFCF93DF93EC010E9416
:1046E0002A23BE01DF91CF910C94AD0B1F93CF9382
:1046F000DF93EB019091FB01992331F0CB01DF9126
:10470000CF911F910C946C23882379F0CB010E94E8
:104710002A23182F682FCE010E94D322BE01812F99
:10472000DF91CF911F910C94AD0BCB010E9401231F
:10473000182FF4CF682F80910C0190910D010C94EB
:104740003226682F80910C0190910D010C943D262A
:1047500080910C0190910D010C944826809150029B
:104760008595859585950895809150028770089567
:1047700090915002977081E009F480E00895809153
:104780007402089590917402892B809374020895A5
:1047900080959091740298239093740208951092DA
:1047A0007402089590917302892B80937302089587
:1047B00080959091730298239093730208951092BC
:1047C0007302089590917202892B8093720208956A
:1047D000809590917202982390937202089510929E
:1047E0007202089580915102089508950C94F52362
:1047F00090915102981721F0809351020C94F62366
:10480000089580915102882329F01092510280E08E
:104810000C94F6230895E0910C01F0910D01809124
:1048200074028083E0910C01F0910D0180819091E0
:104830007302892B8083E0910C01F0910D0180813E
:1048400090917202892B808390915102992381F07B
:10485000E0910C01F0910D018081892B8083809182
:104860000C0190910D010E947C2581110E94012470
:1048700080910C0190910D010C94AE1908950C9447
:104880003E2498E0899F90011124622B609350028E
:104890000E943722809150028595859585950C94CC
:1048A0003F241092500280E00C943F2490915002DB
:1048B0008095892380935002282F277071F4282F28
:1048C000082E000C330B9217130639F08595859549
:1048D00085950E9458220C94512408959093AF011D
:1048E0008093AE010895CF92DF92EF92FF926C0118
:1048F000EE24FF2420E0C114D104E104F10419F0F6
:10490000C701B60120E1C72ED82EE92EFF24C1141D
:10491000D104E104F10419F0285FC701B6016B016D
:104920007C0154E0F694E794D794C7945A95D1F754
:10493000C114D104E104F10419F02C5FC701B601E0
:104940006B017C0142E0F694E794D794C7944A95B2
:10495000D1F7C114D104E104F10419F02E5FC701AD
:10496000B6019695879577956795672B682B692B88
:1049700009F02F5F822FFF90EF90DF90CF90089586
:10498000829590E09C01220F331F220F331F2C7C55
:1049900095958795959587958373282B30E0C90168
:1049A000880F991F8A7A359527952575822B08954A
:1049B00090E080E00E943A2F21E08C3E9E4F09F06B
:1049C00020E0822F089582E090E00C942C2F83E069
:1049D00090E00C942C2FCF9384E090E00E942C2F39
:1049E000C82F81E290E00E942C2F982F8C2FCF911E
:1049F0000895CF93C92F682F84E090E00E94402F44
:104A00006C2F81E290E0CF910C94402FAB01BC0160
:104A10008FE090E00C94522FAB01BC0183E190E059
:104A20000C94522F60E070E0CB010C940C2560E0F8
:104A300070E0CB010E9406250C9412256CEE7EEFEF
:104A400090E080E00E945E2F60E082E090E00E94B3
:104A5000402F60E083E090E00E94402F10924C02D3
:104A600010924D0210924E0210924F0260E084E0CC
:104A700090E00E94402F60E081E290E00E94402F91
:104A800060E085E090E00E94402F60E086E090E0EA
:104A90000E94402F6FEF87E090E00E94402F40E09F
:104AA00050E0BA0188E090E00E94522F60E08DE073
:104AB00090E00E94402F40E050E0BA0188E190E091
:104AC0000E94522F60E087E190E00E94402F40E07A
:104AD00050E0BA018CE190E00E94522F60E080E249
:104AE00090E00E94402F0C9417250C941E25682FEF
:104AF0008EE090E00C94402FFC01329680911801DA
:104B0000882321F08091CE049EE187FF96E080E02B
:104B1000915008F4089521912223D1F38F5FF8CFAB
:104B2000662301F1209118012223F1F02091CE0497
:104B300027FF1AC0462F4695469546954E3190F46C
:104B4000677021E030E002C0220F331F6A95E2F760
:104B5000840F911DFC01828190E02823392381E09C
:104B6000232B69F480E00895FC0132960896219188
:104B7000261721F0E817F907D1F7F4CF81E008955F
:104B80009C01FC0132969FEF80E04191461751F065
:104B90009F3F19F4411101C0982F8F5F8630A9F70C
:104BA0009F3F09F40895290F311D97FD3A95F901AA
:104BB00062830895FC01329608962191261303C062
:104BC000DF0111971C92E817F907B9F70895E62F4E
:104BD000E695E695E695EE3170F4E80FF92FF11DB4
:104BE000677021E030E001C0220F6A95EAF7828108
:104BF000822B828308958091750280FF0CC01F92E2
:104C00006F9383ED90E19F938F930E94340A0F90EE
:104C10000F900F900F900895E62FE695E695E69594
:104C2000EE3178F4E80FF92FF11D677021E030E0E4
:104C300001C0220F6A95EAF72095828128232283FA
:104C400008958091750280FF0CC01F926F9385EBD1
:104C500090E19F938F930E94340A0F900F900F90D2
:104C60000F90089520911801222329F02091CE045D
:104C700027FD0C94E7250C94C025209118012223D0
:104C800029F02091CE0427FD0C940C260C94DA25F3
:104C9000FC01329680911801882351F08091CE0456
:104CA00087FF06C08EE1DF011D928A95E9F708951E
:104CB00086E0F9CF089508950C945B260E945C2647
:104CC0008091D404843049F11092760288E190E01A
:104CD00020E40FB6F894A895809360000FBE20934F
:104CE000600080E00E941D0B0E945C2683B7817FDC
:104CF000846083BF83B7816083BF7894889583B7CE
:104D00008E7F83BF0FB6F894A8958091600088616C
:104D100080936000109260000FBE08950895CF93B5
:104D20000E945A260E943D0E0E948E26C0E08C2FC3
:104D30000E94990D811105C0CF5FC530C1F7CF9199
:104D4000089581E0FCCF08950C94A3260E943D1E97
:104D50000E94A2190E941D0B0C94A4261F921FB63C
:104D60001F9211248F939F93AF93BF9380917602EC
:104D7000811113C08091CA049091CB04A091CC04FE
:104D8000B091CD044196A11DB11D8093CA049093AA
:104D9000CB04A093CC04B093CD04BF91AF919F916D
:104DA0008F911F901FBE1F90189582E084BD93E0E5
:104DB00095BD9AEF97BD80936E0008952FB7F89434
:104DC0008091CA049091CB04A091CC04B091CD0401
:104DD0002FBF08952FB7F8946091CA047091CB0447
:104DE0008091CC049091CD042FBF08959C014FB7C2
:104DF000F8948091CA049091CB04A091CC04B09116
:104E0000CD044FBF821B930B0895CF92DF92EF9298
:104E1000FF922FB7F894C090CA04D090CB04E090D2
:104E2000CC04F090CD042FBFA7019601261B370BB1
:104E3000480B590BCA01B901FF90EF90DF90CF905A
:104E4000089578941F921FB61F9211248F939F93F9
:104E5000AF93BF938091CA049091CB04A091CC04EE
:104E6000B091CD040196A11DB11D8093CA04909309
:104E7000CB04A093CC04B093CD04BF91AF919F918C
:104E80008F911F901FBE1F90189587E797E790930B
:104E900001088093000888E19AE00FB6F894A8957D
:104EA000809360000FBE90936000FFCF0E94D824D3
:104EB000811102C00E9475250E94E324809375022F
:104EC0000E94EB249093CF048093CE040E94E724A9
:104ED000682F70E090E080E00C94D52180919A02D8
:104EE000089508959FB7F894109279029FBF90910A
:104EF000D404943009F048C02091E9002F7030911B
:104F0000EC00932F917030FD90E8922B23E02093DA
:104F1000E9002091EB0020FF34C02091EE0027FF34
:104F200030C020917702222321F02091E80025FF54
:104F300028C01092770226E03091E80035FF14C0B7
:104F40008093F1008091E80085FD27C08091E80002
:104F500080FFFCCF8091E8008E778093E8009F70FF
:104F60009093E90080E008953091D404343049F4FE
:104F70003091EB0035FD05C0215041F481E0809374
:104F800077029F709093E9008FEF0895EFE9FFE0BB
:104F90003197F1F700C00000CFCF8FB7F89421E030
:104FA000209379028FBFDBCFCF93DF9300D00F9296
:104FB000CDB7DEB79091D404943019F589837B8303
:104FC0006A8382E08093E9008FEF9091E80081503E
:104FD00095FD06C095ED9A95F1F700008111F5CF8A
:104FE0008091E80085FF0DC050E040E063E070E094
:104FF000CE0101960E94602A8091E8008E7780930E
:10500000E8000F900F900F90DF91CF910895CF930C
:10501000DF93EC010E94432A823011F0843031F496
:10502000BE0184E0DF91CF910C94D427DF91CF9122
:105030000895BC0183E00C94D427CF93DF93EC0157
:105040000E94432A823011F08430B9F58091180112
:105050008823B1F18091CE0487FF32C060E282E004
:105060008093E9008FEF9091E800815095FD06C094
:1050700095ED9A95F1F700008111F5CF8091E80048
:1050800085FF1BC08091180170E050E040E0811165
:1050900004C050E040E068E070E0CE010E94602A69
:1050A0008091E8008E778093E80080E2FE01AAE715
:1050B000B2E001900D928A95E1F7DF91CF910895CA
:1050C00068E081E0CDCF86E191E10E949B0980916B
:1050D000D304811109C00E94F02B0E944D2C8091B5
:1050E000E20084608093E200089582E191E10E94F1
:1050F0009B091092D30408958EE091E10C949B09D2
:105100008AE091E10C949B0986E091E10E949B0961
:105110000C94A626209178022F5F822F62E30E94D2
:10512000F02E992319F020937802089510927802B6
:10513000809179028823F1F08091D4048430C1F405
:105140009091E9009F702091EC00822F817020FDEA
:1051500080E8892B93E09093E9009091EB0090FF19
:1051600004C09091EE0097FD08C08F708093E90015
:105170001092790208951092F1009091E80095FD47
:10518000FACF9091E80090FFF0CF9091E8009E77E1
:105190009093E800EACF42E061EC81E00E946C2B42
:1051A00042E261EC82E00E946C2B42E261EC83E01F
:1051B0000C946C2B8091D604833009F45FC030F4DA
:1051C0008130C1F1823009F49BC008958A3009F41E
:1051D00087C08B3009F46DC0893009F04EC08091D2
:1051E000D504813209F049C08091D9049091DA0444
:1051F000029708F042C08091E800877F8093E80022
:105200008091E80082FF35C09091F3008091F20018
:10521000029729F48091F1008B7F813021F48091F5
:10522000F10080939A028091E8008B778093E800E8
:105230000C94A02B8091D504813AF9F48091E80078
:10524000877F8093E8008091D9049091DA04892BBC
:1052500061F460E28AE792E070E00E94AF2A8091F8
:10526000E8008B778093E800089560E090E080E0AC
:10527000F3CF8091D4048111C3CF08958091D504D8
:10528000813AD9F78091D9049091DA04892BA9F752
:105290008091E800877F8093E8008091E80080FF9C
:1052A000FCCF809118018093F1008091E8008E7707
:1052B000BDCF8091D504813201F78091D9049091BE
:1052C000DA04892BD1F68091E800877F8093E8008B
:1052D0000E94A02B8091D704809318010C943D1E4E
:1052E0008091D504813249F68091E800877F8093D0
:1052F000E8000E94A02B8091D80480939B0208951F
:105300008091D504813A09F0B8CF8091E800877F79
:105310008093E8008091E80080FFFCCF80919B02A1
:10532000C2CF84B7877F84BF0FB6F894A8958091C9
:105330006000886180936000109260000FBE80E87A
:1053400090E00FB6F89480936100909361000FBED7
:105350000E94421A0E94F02B0E944D2C8091E20084
:1053600084608093E20082E797E20E946E24789442
:105370000E94D52E0E944C1A8EE091E00E949D1949
:1053800085EF90E10E949B098091D404853019F04B
:105390000E94811AF9CF81EF90E10E949B090E943F
:1053A0005E268091D204882379F30E948F26882379
:1053B00059F30E944A2AE8CF0C94DE29292F33277B
:1053C0002330310521F168F42130310509F449C059
:1053D0002230310509F44AC090E080E030E020E05E
:1053E00029C02132310581F122323105A9F763301C
:1053F000710590F7FB01EE0FFF1FEE55FE4F208168
:10540000318161567E4FFB01808190E013C0992766
:105410008130910599F0009741F08230910589F033
:105420000397D1F6EAE1F1E102C0ECE4F1E1849105
:1054300090E09F01FA01318320830895E6E3F1E1D2
:10544000F6CFE0E2F1E1F3CF6330710528F6660FA5
:10545000771FFB01E855FE4F2081318189E090E004
:10546000E9CF82E190E02BEA31E1E4CF8BE590E0F7
:1054700020E531E1DFCF8091D404843011F482E063
:10548000089581E0089580919C02811102C00C94DE
:105490003B2A089580E189BD82E189BD09B400FEFF
:1054A000FDCF8091D8008F7D8093D8008091E0005F
:1054B00082608093E0008091E00081FDFCCF089540
:1054C000AF92BF92CF92DF92FF920F931F93CF9331
:1054D000DF936C01EB018A010E94BF2BF82E811132
:1054E00023C00115110539F0F80180819181C81B95
:1054F000D90BC80ED91EB12CA12C2097A9F08091F0
:10550000E80085FD22C08091E8008E778093E80056
:1055100001151105A1F0F80180819181A80EB91E35
:10552000B182A08285E0F82E8F2DDF91CF911F915F
:105530000F91FF90DF90CF90BF90AF9008950E94A1
:10554000BF2B8823D1F2F82EEFCFF60181916F01A6
:105550008093F1002197FFEFAF1ABF0ACECFFC0175
:105560008091DB049091DC0486179707A0F0611509
:10557000710529F49091E8009E779093E80090E0FF
:105580006115710551F4911108C08091E80082FF06
:1055900034C080E00895BC01F2CF8091D404882308
:1055A000C1F18530C1F18091E80083FD30C0809168
:1055B000E80082FDEACF8091E80080FFE1CF809192
:1055C000F3002091F200382F6115710519F0283091
:1055D000310558F091E02830310509F090E0209134
:1055E000E8002E772093E800CBCF81918093F100E3
:1055F000615071092F5F3F4FE7CF8091D40488231A
:1056000041F0853041F08091E80083FFBECF81E01A
:10561000089582E0089583E00895FC018091DB0401
:105620009091DC0486179707A0F06115710529F4A5
:105630008091E8008E778093E80090E06115710515
:1056400051F4911108C08091E80082FF35C080E0DC
:105650000895BC01F2CF8091D4048823C9F185302C
:10566000C9F18091E80083FD31C08091E80082FD9E
:10567000EACF8091E80080FFE1CF8091F300209194
:10568000F200382F6115710519F02830310558F0F6
:1056900091E02830310509F090E08091E8008E77A4
:1056A0008093E800CBCF84918093F10031966150D4
:1056B00071092F5F3F4FE6CF8091D404882341F0DA
:1056C000853041F08091E80083FFBDCF81E00895EF
:1056D00082E0089583E00895982F973028F08F7026
:1056E0008093E90081E008959093E900242F762FBC
:1056F00050E0981731F07091EC002091ED0050913E
:10570000F00021FD02C09F5FE8CF3091EB003E7FAB
:105710003093EB003091ED003D7F3093ED00309100
:10572000EB0031603093EB007093EC002093ED00C0
:105730005093F0002091EE0027FDE5CF80E0089522
:105740008091D50487FF13C08091E80082FF06C0D6
:105750008091E8008B778093E80004C08091D404A6
:105760008111F2CF08958091D4048823D9F38091D8
:10577000E80080FFF8CF8091E8008E77ECCF209191
:10578000E4003091E50095E6A9012091EC00822F1C
:10579000817020FF06C08091E80080FF06C080E095
:1057A00008952091E80022FD1AC08091D404882336
:1057B00089F0853089F08091EB0085FD0FC0209144
:1057C000E4003091E50042175307F9F29150E1F6F9
:1057D00084E0089582E0089583E0089581E00895CB
:1057E0000E945E2C0E94662CE0EEF0E080818160D9
:1057F0008083E8EDF0E080818F77808319BCA7ED8E
:10580000B0E08C918E7F8C9380818F7E808310920C
:10581000D30408950F931F93CF93DF930E945E2CC0
:105820000E94662CC8EDD0E088818F7788838881BC
:105830008068888388818F7D888319BC1092D40406
:105840001092D0041092D2041092D10400EE10E015
:10585000F80180818B7F808388818160888342E02A
:1058600060E080E00E946C2BE1EEF0E080818E7FB2
:105870008083E2EEF0E080818160808380818860B7
:105880008083F80180818E7F808388818061888316
:10589000DF91CF911F910F910895E8EDF0E08081A5
:1058A0008F7E8083E7EDF0E080818160808384E0FB
:1058B00082BF81E08093D3040C940A2CE8EDF0E0E1
:1058C00080818E7F80831092E20008951092DA002A
:1058D0001092E10008951F920F920FB60F921124BB
:1058E0002F933F934F935F936F937F938F939F93E8
:1058F000AF93BF93EF93FF938091E10082FF0BC0C2
:105900008091E20082FF07C08091E1008B7F80934D
:10591000E1000E948A288091DA0080FF19C08091FE
:10592000D80080FF15C08091DA008E7F8093DA0066
:105930008091D90080FF96C080E189BD82E189BD58
:1059400009B400FEFDCF81E08093D4040E94632857
:105950008091E10080FF19C08091E20080FF15C0B6
:105960008091E2008E7F8093E2008091E20080616E
:105970008093E2008091D80080628093D80019BCA7
:1059800085E08093D4040E9480288091E10084FF08
:105990002BC08091E20084FF27C080E189BD82E1B5
:1059A00089BD89B5982F917080FFFBCF8091D80079
:1059B0008F7D8093D8008091E1008F7E8093E100FD
:1059C0008091E2008F7E8093E2008091E20081600E
:1059D0008093E2008091D004882309F449C084E0D8
:1059E0008093D4040E9484288091E10083FF29C021
:1059F0008091E20083FF25C08091E100877F809342
:105A0000E10082E08093D4041092D0048091E10000
:105A10008E7F8093E1008091E2008E7F8093E20090
:105A20008091E20080618093E20042E060E080E0EB
:105A30000E946C2B8091F00088608093F0000E949F
:105A40007C28FF91EF91BF91AF919F918F917F91B2
:105A50006F915F914F913F912F910F900FBE0F90DB
:105A60001F90189519BC1092D4040E94752870CF0D
:105A70008091E30087FD93E09093D404B3CF1F920D
:105A80000F920FB60F9211242F933F934F935F9372
:105A90006F937F938F939F93AF93BF93CF93DF9336
:105AA000EF93FF93D091E900DF708091EC00C82F55
:105AB000C17080FDC0E81092E9008091F000877FFE
:105AC0008093F00078940E94832D1092E9008091D9
:105AD000F00088608093F000CD2BCF70C093E90078
